:020000040800F2
:100000006804002001010008DB0F0008CB0E000887
:10001000D90F000849010008C513000800000000BE
:1000200000000000000000000000000005100008B3
:100030004B01000800000000031000080710000832
:100040001B0100081B0100081B0100081B01000820
:100050001B0100081B0100084D010008D901000820
:100060001B0100081B0100081B0100081B01000800
:100070001B0100081B0100081B0100081B010008F0
:100080001B0100081B0100081B0100081B010008E0
:100090001B0100081B0100081B0100081B010008D0
:1000A0001B0100081B0100081B0100081B010008C0
:1000B0001B0100081B0100081B0100081B010008B0
:1000C0001B0100081B0100081B0100081B010008A0
:1000D0001B0100081B010008B91300081B010008E0
:1000E0001B0100081B0100081B010008DFF80CD0F1
:1000F00000F018F800480047F514000868040020D4
:100100000648804706480047FEE7FEE7FEE7FEE7B1
:10011000FEE7FEE7FEE7FEE7FEE7FEE775100008F4
:10012000ED000008064C074D06E0E06840F00103D2
:1001300094E8070098471034AC42F6D3FFF7DAFF93
:10014000CC150008EC150008FEE770472DE9F041DA
:100150001C4E4FF4005500222946304600F0CCF9E1
:10016000194C1AA0216801F02FF94FF47A7738461C
:1001700000F0C4F815A0216801F026F940F6B83067
:1001800000F0BCF81248016810A001F01DF942F21D
:10019000107000F0B3F80F4801680CA001F014F9DA
:1001A000384600F0ABF801222946304600F0A4F9A9
:1001B0000121084600F06CFABDE8F041012000F092
:1001C000B1B80000001001400000002025730000BD
:1001D00008000020040000202DE9F0411C4E4FF4DF
:1001E000005500222946304600F086F9194C1AA025
:1001F000216801F0E9F84FF47A77384600F07EF88C
:1002000015A0216801F0E0F840F6B83000F076F86B
:100210001248016810A001F0D7F842F2107000F007
:100220006DF80F4801680CA001F0CEF8384600F0D8
:1002300065F801222946304600F05EF901210846A2
:1002400000F026FABDE8F041022000F06BB8000093
:100250000010014000000020257300000C00002069
:100260000400002010B590F821100024022903D0CA
:100270000421816301243DE001680A6822F00E0236
:100280000A6001680A6822F001020A601A4A0168DD
:10029000914201D1012121E0174A1432914201D14A
:1002A00010211BE0144A2832914201D1891515E032
:1002B000114A3C32914201D189140FE00E4A50326A
:1002C000914202D14FF4803108E00B4A64329142EE
:1002D00002D14FF4801101E04FF08071064A083AD4
:1002E0005160012180F82110002180F82010416B1D
:1002F00001B18847204610BD0800024070B5044691
:1003000000F000F90546601C02D00448007804445F
:1003100000F0F8F8401BA042FAD370BD1000002096
:1003200070470000044910B50A68024202D0086014
:10033000FFF7F6FF10BD0000140401402DE9F84F4F
:10034000DFF890A100220AF1040B144601274FF0B8
:100350000F090BF1040E00BF0B6807FA04F52B40E0
:10036000AB4274D1DFF870C14E68A6EB0C0866454D
:100370002BD00DDC032E34D005DC36B3012E19D082
:10038000022E2FD11BE0112E16D0122E2AD119E0E9
:10039000B8F5881F19D006DCB8F5803F15D0B8F540
:1003A000801F1FD111E0B8F5001F0ED0B8F5041F53
:1003B00018D10AE0CA6815E0CA68121D12E0CA68BE
:1003C00008320FE0CA680C320CE08A682AB1012AB0
:1003D0004FF0080203D0456104E0042202E0056109
:1003E00000E00022FF2B01D8064601E000F10406E0
:1003F0004FEA840501D9A5F12005D6F800C009FA15
:1004000005F82CEA080C02FA05F54CEA050CC6F8CA
:1004100000C04D68ED0057D5304DAE6946F001067D
:10042000AE61AD6924F0030605F0010500952C4D81
:1004300006EB050CDCF80850A6074FEA167809FA17
:1004400008F6B543274EB04202D1002610E03BE04B
:10045000254EB04201D101260AE0244EB04201D11E
:10046000022605E0224EB04201D1032600E0042618
:1004700006FA08F62E43CCF808604D68DAF80060FA
:10048000ED03554601D51E4300E09E432E604D68A6
:10049000DBF80060AD035D4601D51E4300E09E43DE
:1004A0002E604D68DEF80060ED02754601D51E43F2
:1004B00000E09E432E604D68AD020E4D2E6801D5C2
:1004C0001E4300E09E432E60641C102CFFF444AFDA
:1004D000BDE8F88F00040140000011100010024038
:1004E0000000014000080140000C014000100140E4
:1004F000001401400C0401400AB101617047090475
:10050000FBE70000014880687047000010000020F1
:100510000248816802781144816070471000002011
:10052000074810B5016841F010010160032000F098
:100530009DF8002000F006F800F024F8002010BD1F
:100540000020024070B50D4D04464FF47A712878B2
:10055000B1FBF0F00A490968B1FBF0F000F04FFB85
:1005600048B9102C07D200222146501E00F05EF838
:1005700000206C6070BD012070BD000010000020E4
:100580001C000020214808B5816941F0010181610A
:10059000816901F001010091C16941F08051C1619F
:1005A000C06900F080500090032000F05FF8002246
:1005B00011466FF00B0000F039F8002211466FF081
:1005C0000A0000F033F8002211466FF0090000F035
:1005D0002DF800221146501F00F028F80022114685
:1005E000101F00F023F800221146901E00F01EF8A4
:1005F00000221146501E00F019F80548416821F00C
:10060000E06141F00071416008BD0000001002404F
:100610000000014000F01F020121914040098000CC
:1006200000F1E020C0F8001170470000F0B40E4B5C
:100630001B680C46C3F30223C3F10705042D00D940
:100640000425191D072901D2002300E0DB1E012625
:1006500006FA05F1491E214099409E40761E16403B
:100660003143F0BC00F0BABC0CED00E0064900F0EC
:10067000070208684FF6FF03184040EA0220034AC9
:1006800010430860704700000CED00E00000FA0520
:100690000E4A10B5136823F002031360136823F0A9
:1006A0000103034313600A4C206840F004002060FB
:1006B000012909D040BF00F0A1FC00F09FFC206898
:1006C00020F00400206010BD30BFF8E7007000404B
:1006D00010ED00E02DE9F047DFF83C8105460E46BD
:1006E000D8F8000000F00700B0420CD2D8F8001093
:1006F00021F007013143C8F80010D8F8000000F0DD
:100700000700B04263D12878444C800705D5606863
:10071000A96820F0F000084360602878C00745D041
:100720006868012816D02168022816D08907002998
:100730004DDA616821F0030101436160FFF7E2FED9
:100740006968074641F2883001290FD002298146A5
:1007500019D027E021688903E9E78901E7E700BFAD
:10076000FFF7D0FEC11B494501D918E081466068FA
:10077000C0F381000128F3D118E000BFFFF7C2FEEB
:10078000C11B49450BD86068C0F381000228F5D130
:100790000CE000BFFFF7B6FEC11B494502D903209C
:1007A000BDE8F087606810F00C0FF3D1D8F80010A6
:1007B000404601F00701B1420BD9016821F0070161
:1007C00031430160006800F00700B04201D0012011
:1007D000E6E72878400705D56068E96820F4E0601E
:1007E000084360602878000706D56068296920F40E
:1007F000605040EAC100606000F03CF86168084A5F
:10080000C1F30311515CC840064908600020FFF79E
:1008100099FE0020C4E700000020024000100240C2
:10082000801500081C000020014800687047000087
:100830001C0000200448054900684968044AC1F3C7
:100840000221515CC84070471C000020001002408B
:10085000901500080448054900684968044AC1F336
:10086000C221515CC84070471C00002000100240AB
:100870009015000812A185B00FC98DE80F0014A0D3
:10088000144A006804905168134801F00C03042BCB
:1008900010D0082B0ED1C1F38343C9031DF8030008
:1008A0000AD5516804AAC1F34041515C0A4A504339
:1008B000B0FBF1F005B0704708494843FAE7000083
:1008C00002030405060708090A0B0C0D0E0F101091
:1008D000010200000010024000127A0000093D00F1
:1008E0002DE9F84F04460078B94DC00748D0686834
:1008F000C0F38100012807D06868C0F38100022896
:1009000009D16868C00306D52868800338D56068B7
:1009100000286FD034E06068B0F5803F0BD010B194
:10092000B0F5A02F11D0286820F480302860286806
:1009300020F4802002E0286840F48030286060685D
:1009400088B1FFF7DFFD064609E0286840F4802003
:100950002860F0E7FFF7D6FD801B642875D828686B
:100960008003F7D50CE0FFF7CDFD064605E000BF9C
:10097000FFF7C8FD801B6428F0D828688003F7D4EF
:100980002078944E80074FF001094FF000083BD5C6
:10099000686810F00C0F07D06868C0F38100022867
:1009A00009D16868C00306D42868800714D5206977
:1009B00001281FD110E02069B0B1C6F80090FFF700
:1009C000A1FD074605E000BFFFF79CFDC01B022804
:1009D000C4D828688007F7D52868616920F0F80036
:1009E00040EAC10028600FE0C6F80080FFF78AFDEA
:1009F000074606E0E9E000BFFFF784FDC01B0228C0
:100A000023D828688007F7D4207800072CD57248AF
:100A1000A169D9B1C0F80090FFF774FD074604E062
:100A2000FFF770FDC01B02280FD8686A8007F7D552
:100A30006A484FF4FA510068B0FBF1F0009000BF33
:100A40000098411E0091FAD20EE080E0C0F80080CC
:100A5000FFF758FD074604E0FFF754FDC01B0228CE
:100A600075D8686A8007F7D42078400760D5E869B0
:100A70000027C00008D4E86940F08050E861E869C8
:100A8000012700F08050009055480168C90513D433
:100A90000168834641F480710160FFF733FD8246AF
:100AA00006E000BFFFF72EFDA0EB0A0064284ED839
:100AB000DBF80000C005F5D5E06801280AD008B1D0
:100AC000052813D0286A20F001002862286A20F047
:100AD000040002E0286A40F001002862E06841F268
:100AE000883B98B1FFF70EFD82460BE0286A40F084
:100AF00004002862EEE700BFFFF704FDA0EB0A0147
:100B000059455AD8286A8007F6D50CE0FFF7FAFC59
:100B1000824605E0FFF7F6FCA0EB0A0159454CD8E8
:100B2000286A8007F6D41FB1E86920F08050E86198
:100B3000E06988B36968C1F38101022945D00228C0
:100B4000C6F8608004D0FFF7DDFC044638E034E0EE
:100B5000FFF7D8FC074604E0FFF7D4FCC01B0228CF
:100B60002BD828688001F7D4206AB0F5803F05D1E2
:100B70006868A16820F4003008436860D4E908017F
:100B80000843696821F4741108436860C6F86090EE
:100B9000FFF7B8FC044606E015E000BFFFF7B2FC23
:100BA000001B022809D828688001F7D50BE000BF98
:100BB000FFF7A8FC001B022802D90320BDE8F88F2C
:100BC00028688001F4D40020F8E70120F6E700004F
:100BD0000010024000004242800442421C000020FB
:100BE000007000404FF0E0210428086903D020F095
:100BF00004000861704740F00400FAE7704710B540
:100C0000401EB0F1807F01D3012010BD4FF0E024E1
:100C100060610F21601700F0E1F90020A06107205A
:100C20002061002010BD10B5FFF7E8FF10BD704730
:100C300070B5026804461068D168536910F00F0F50
:100C400050D003F0010501F4907635435DD0C20722
:100C500005D0CA0503D5E26B42F00102E263420708
:100C600005D5DA0703D0E26B42F00202E2638207A5
:100C700005D5DA0703D0E26B42F00402E263020713
:100C800005D5DA0703D0E26B42F00802E263E26BBB
:100C9000002A33D0800604D5880602D5204600F00D
:100CA00023FA20684069E16BC0F38010090700D483
:100CB00028B3204600F00AFA2068416949061AD58F
:100CC000416921F040014161606BA0B11B49416362
:100CD000606BFFF7C7FA002810D0606B416BBDE86E
:100CE00070400847830610D58B060ED52046BDE818
:100CF000704000F0F9B92046FFF799FF70BD20461B
:100D0000FFF795FF0020E06370BD030606D50B06D4
:100D100004D52046BDE8704000F0EABA4006F3D59D
:100D20004806F1D5D168204621F04001D16020214C
:100D300084F8391000F0C8F870BD0000BD1000083C
:100D400070B5040004D094F83900002510B106E015
:100D5000012070BD84F83850204600F023F824208C
:100D600084F839002068C16821F40051C160204630
:100D700000F006FA2068016921F4904101612068C1
:100D8000416921F02A0141612068C16841F40051A4
:100D9000C160E563202084F8390084F83A0000201F
:100DA00070BD000010B50068154986B0884224D196
:100DB0001448C16941F40031C161C069124C00F4AA
:100DC0000030049004200090022001900320039042
:100DD00069462046FFF7B2FA00210820CDE900015C
:100DE000029169462046FFF7A9FA00220121262038
:100DF000FFF71CFC2620FFF70DFC06B010BD00001D
:100E000000440040001002400008014070472DE9F6
:100E1000F843044690F839001F4616460D46202830
:100E200050D1A5B19EB194F8380001284AD00120D4
:100E300084F838004FF00008C4F83C80212084F882
:100E40003900FFF75FFBA6848146E68426E0012097
:100E5000BDE8F883E08C401EE084A0684B46B0F506
:100E6000805F4FF000024FF080012046009703D0D2
:100E700000F06FFAE8B90DE000F06BFAC8B9288805
:100E80002168C0F308004860206908B16D1C05E0C6
:100E9000AD1C03E0216815F8010B4860E08C0028C8
:100EA000D8D14B46002240212046009700F051FA4D
:100EB00008B10320CCE7202084F8390084F838807A
:100EC0000020C5E70220C3E77047FEE770B53B4846
:100ED00086B0816941F010018161816901F01001E2
:100EE0000491816941F020018161816901F0200153
:100EF0000491816941F004018161816901F004017B
:100F00000491816941F00801816180692C4E00F0F3
:100F100008004FF400540490002221463046FFF7A9
:100F2000EBFA012500200094CDE901500220039046
:100F300069463046FFF702FA4FF440400324CDE9FA
:100F4000000469463046FFF7F9F9009469461D48E8
:100F50000194FFF7F3F91C480094CDE901051B4DFE
:100F600069462846FFF7EAF949F6F070CDE9000432
:100F700069462846FFF7E2F94FF6FF70CDE9000415
:100F800069461348FFF7DAF91248416841F0E06119
:100F900041F400414160002202210620FFF746FB98
:100FA0000620FFF737FB002202210720FFF73EFB58
:100FB0000720FFF72FFB06B070BD000000100240B5
:100FC0000010014000140140000021100008014001
:100FD000000C014000000140FEE770470907090EC0
:100FE000002806DA00F00F0000F1E02080F8141D60
:100FF000704700F1E02080F80014704720BF00BF68
:1010000070477047704710B5FFF782FABDE810408F
:10101000FFF709BE10B590B00220009001200490A7
:1010200010200024059007946846FFF759FC00B192
:10103000FEE70F20CDE90A049020CDE90C044FF41F
:1010400080600E9000210AA8FFF744FB00B1FEE784
:10105000FFF7EAFB4FF47A71B0FBF1F0FFF7CFFD39
:101060000420FFF7BFFD00221146501EFFF7DEFAF5
:1010700010B010BD0D48016841F0010101604168E8
:101080000B4A1140416001680A4A11400160016841
:1010900021F480210160416821F4FE0141604FF498
:1010A0001F0181600449C0030860704700100240BE
:1010B0000000FFF8FFFFF6FE08ED00E010B5406A03
:1010C0000021C185C184FFF7B2FD10BD0168CA6867
:1010D00022F49072CA6001684A6922F001024A61F2
:1010E000202180F83A10704710B590F83A10222964
:1010F00001D0022010BD8168B1F5805F11D0016977
:10110000002901681FD0496801F07F03816A4A1CE9
:1011100082620B70C18D491E0904090CC18518D06B
:101120002BE00269816A002A0268526805D0D2B2B7
:101130000A80816A491C8162ECE7C2F308020A80D6
:10114000816A891CF7E74A68816A4B1C83620A70CE
:10115000E0E70168CA6822F02002CA600168CA6834
:1011600022F48072CA6001684A6922F001024A6171
:10117000202180F83A10FFF749FE002010BD000042
:101180002DE9F041044600680169E26821F440510C
:10119000114301612169A06808436169084321681E
:1011A000CA6841F20C639A430243CA6020684169ED
:1011B000A26921F44071114341614C4920686425C2
:1011C000322688423CD1FFF745FB00EBC00101EB22
:1011D000001061688900B0FBF1F7FFF73BFB00EB03
:1011E000C00101EB00106168B0468900B0FBF1F06E
:1011F000B0FBF5F06FF01801484307EB800106EBF8
:101200000110B0FBF5F000F0F006FFF723FB00EB58
:10121000C00101EB001061688900B0FBF1F0B0FB88
:10122000F5F006EB0016FFF715FB00EBC00101EB34
:10123000001061688900B0FBF1F7FFF70BFB3BE0A2
:10124000FFF7F8FA00EBC00101EB001061688900BC
:10125000B0FBF1F7FFF7EEFA00EBC00101EB001075
:101260006168B0468900B0FBF1F0B0FBF5F06FF0BB
:101270001801484307EB800106EB0110B0FBF5F0C5
:1012800000F0F006FFF7D6FA00EBC00101EB00100A
:1012900061688900B0FBF1F0B0FBF5F006EB0016D9
:1012A000FFF7C8FA00EBC00101EB0010616889008C
:1012B000B0FBF1F7FFF7BEFA00EBC00101EB001045
:1012C00061688900B0FBF1F0B0FBF5F06FF0180138
:1012D000484307EB800108EB0110B0FBF5F02168F3
:1012E00000F00F0030448860BDE8F0810038014014
:1012F00090F83910212901D0022070478168B1F59A
:10130000805F016A0BD04A1C026202680978516052
:10131000C18C491E0904090CC1840ED017E009884C
:101320000268C1F30801516001690029016A02D015
:10133000491C0162ECE7891CFBE70168CA6822F0DE
:101340008002CA600068C16841F04001C1600020AD
:1013500070472DE9F041984617460E460446069D13
:101360001DE0681C1BD02DB1FFF7CCF8A0EB0800E6
:10137000A84214D92068C16821F4D071C1602068E6
:10138000416921F001014161202084F8390084F88D
:101390003A00002084F838000320BDE8F08120687E
:1013A000006836EA000004D00020B842D9D00020FE
:1013B000F3E70120F9E700000148FFF739BC00001E
:1013C00024000020FEE700000FB4054B10B503A970
:1013D000044A029800F017F810BC5DF814FB0000F6
:1013E000DD1400082000002002E008C8121F08C118
:1013F000002AFAD170477047002001E001C1121F96
:10140000002AFBD170472DE9F84F9946924688464D
:101410000546002706E025280AD051464A4690474F
:101420006D1C7F1C28780028F5D13846BDE8F88F60
:10143000002315F8011F18462E2915D115F8011F94
:1014400004232A290DD06FF02F022978A1F130044E
:10145000092C09D800EB800002EB400008446D1C09
:10146000F3E758F8040B6D1C2A78002ADDD0632AB4
:1014700007D0732A0FD0104651464A4690477F1C2A
:101480002AE018F8042B8DF8002000218DF80110B7
:101490006E46012103E058F8046B4FF0FF315A0704
:1014A0004FF0000401D409E0641C84420BDA8C4242
:1014B000FADB325D002AF7D105E0641C8C42FCDBCC
:1014C000305D0028F9D1274404E016F8010B51469D
:1014D0004A469047641EF8D26D1CA3E713B5FF235C
:1014E000012269460248FFF792FC00981CBD0000EB
:1014F00024000020FFF714F8FFF78CFDFFF7E6FC4F
:101500001B481A490C2201604FF4E131416000216F
:101510008160C160C0E904128161C161FFF710FC04
:1015200000B1FEE7012251031248FEF7E5FF124C1D
:1015300012A02168FFF748FF4FF4FA70FEF7DEFEB5
:101540000EA02168FFF740FF4FF47A70FEF7D6FE39
:101550000AA06168FFF738FF4FF496742046FEF743
:10156000CDFE01210846FFF793F8F7E7004400405D
:10157000240000200010014000000020257300001E
:101580000000000000000000010203040607080933
:10159000000000000102030441543F0D0A00000056
:1015A000415424534C4545500D0A000041542453E6
:1015B000463D31322C300D0A0000000041542453C6
:1015C000463D33342C300D0A00000000EC150008B5
:1015D0000000002024000000E81300081016000896
:1015E0002400002044040000F813000898150008A7
:1015F000A0150008AC150008BC150008010000008B
:10160000100000000000000000A24A0400000000DA
:04000005080000ED02
:00000001FF
